{
  "contractName": "CampaignFactory",
  "abi": [
    {
      "inputs": [
        {
          "internalType": "uint256",
          "name": "",
          "type": "uint256"
        }
      ],
      "name": "deployedCampaigns",
      "outputs": [
        {
          "internalType": "address",
          "name": "",
          "type": "address"
        }
      ],
      "stateMutability": "view",
      "type": "function",
      "constant": true
    },
    {
      "inputs": [
        {
          "internalType": "uint256",
          "name": "minimum",
          "type": "uint256"
        },
        {
          "internalType": "string",
          "name": "name",
          "type": "string"
        },
        {
          "internalType": "string",
          "name": "description",
          "type": "string"
        },
        {
          "internalType": "string",
          "name": "image",
          "type": "string"
        },
        {
          "internalType": "uint256",
          "name": "target",
          "type": "uint256"
        }
      ],
      "name": "createCampaign",
      "outputs": [],
      "stateMutability": "nonpayable",
      "type": "function"
    },
    {
      "inputs": [],
      "name": "getDeployedCampaigns",
      "outputs": [
        {
          "internalType": "address[]",
          "name": "",
          "type": "address[]"
        }
      ],
      "stateMutability": "view",
      "type": "function",
      "constant": true
    },
    {
      "inputs": [],
      "name": "getDeployedCampaignsLength",
      "outputs": [
        {
          "internalType": "uint256",
          "name": "",
          "type": "uint256"
        }
      ],
      "stateMutability": "view",
      "type": "function",
      "constant": true
    },
    {
      "inputs": [],
      "name": "getNewestCampaignAddress",
      "outputs": [
        {
          "internalType": "address",
          "name": "",
          "type": "address"
        }
      ],
      "stateMutability": "view",
      "type": "function",
      "constant": true
    }
  ],
  "bytecode": "0x608060405234801561001057600080fd5b506121af806100206000396000f3fe60806040523480156200001157600080fd5b50600436106200005e5760003560e01c80631a3499211462000063578063339d50a514620000855780634acb9d4f14620000bb578063c6ef243814620000dd578063d4ddd71a14620000ff575b600080fd5b6200006d6200011f565b6040516200007c91906200035b565b60405180910390f35b620000a360048036038101906200009d9190620003c7565b6200017a565b604051620000b291906200035b565b60405180910390f35b620000c5620001ba565b604051620000d49190620004c7565b60405180910390f35b620000e76200024a565b604051620000f69190620004fc565b60405180910390f35b6200011d60048036038101906200011791906200067b565b62000256565b005b60008060016000805490506200013691906200078f565b815481106200014a5762000149620007ca565b5b9060005260206000200160009054906101000a900473ffffffffffffffffffffffffffffffffffffffff16905090565b600081815481106200018b57600080fd5b906000526020600020016000915054906101000a900473ffffffffffffffffffffffffffffffffffffffff1681565b606060008054806020026020016040519081016040528092919081815260200182805480156200024057602002820191906000526020600020905b8160009054906101000a900473ffffffffffffffffffffffffffffffffffffffff1673ffffffffffffffffffffffffffffffffffffffff1681526020019060010190808311620001f5575b5050505050905090565b60008080549050905090565b60008533868686866040516200026c9062000308565b6200027d969594939291906200088c565b604051809103906000f0801580156200029a573d6000803e3d6000fd5b5090506000819080600181540180825580915050600190039060005260206000200160009091909190916101000a81548173ffffffffffffffffffffffffffffffffffffffff021916908373ffffffffffffffffffffffffffffffffffffffff160217905550505050505050565b61186b806200090f83390190565b600073ffffffffffffffffffffffffffffffffffffffff82169050919050565b6000620003438262000316565b9050919050565b620003558162000336565b82525050565b60006020820190506200037260008301846200034a565b92915050565b6000604051905090565b600080fd5b600080fd5b6000819050919050565b620003a1816200038c565b8114620003ad57600080fd5b50565b600081359050620003c18162000396565b92915050565b600060208284031215620003e057620003df62000382565b5b6000620003f084828501620003b0565b91505092915050565b600081519050919050565b600082825260208201905092915050565b6000819050602082019050919050565b620004308162000336565b82525050565b600062000444838362000425565b60208301905092915050565b6000602082019050919050565b60006200046a82620003f9565b62000476818562000404565b9350620004838362000415565b8060005b83811015620004ba5781516200049e888262000436565b9750620004ab8362000450565b92505060018101905062000487565b5085935050505092915050565b60006020820190508181036000830152620004e381846200045d565b905092915050565b620004f6816200038c565b82525050565b6000602082019050620005136000830184620004eb565b92915050565b600080fd5b600080fd5b6000601f19601f8301169050919050565b7f4e487b7100000000000000000000000000000000000000000000000000000000600052604160045260246000fd5b6200056e8262000523565b810181811067ffffffffffffffff8211171562000590576200058f62000534565b5b80604052505050565b6000620005a562000378565b9050620005b3828262000563565b919050565b600067ffffffffffffffff821115620005d657620005d562000534565b5b620005e18262000523565b9050602081019050919050565b82818337600083830152505050565b6000620006146200060e84620005b8565b62000599565b9050828152602081018484840111156200063357620006326200051e565b5b62000640848285620005ee565b509392505050565b600082601f83011262000660576200065f62000519565b5b813562000672848260208601620005fd565b91505092915050565b600080600080600060a086880312156200069a576200069962000382565b5b6000620006aa88828901620003b0565b955050602086013567ffffffffffffffff811115620006ce57620006cd62000387565b5b620006dc8882890162000648565b945050604086013567ffffffffffffffff8111156200070057620006ff62000387565b5b6200070e8882890162000648565b935050606086013567ffffffffffffffff81111562000732576200073162000387565b5b620007408882890162000648565b92505060806200075388828901620003b0565b9150509295509295909350565b7f4e487b7100000000000000000000000000000000000000000000000000000000600052601160045260246000fd5b60006200079c826200038c565b9150620007a9836200038c565b925082821015620007bf57620007be62000760565b5b828203905092915050565b7f4e487b7100000000000000000000000000000000000000000000000000000000600052603260045260246000fd5b600081519050919050565b600082825260208201905092915050565b60005b838110156200083557808201518184015260208101905062000818565b8381111562000845576000848401525b50505050565b60006200085882620007f9565b62000864818562000804565b93506200087681856020860162000815565b620008818162000523565b840191505092915050565b600060c082019050620008a36000830189620004eb565b620008b260208301886200034a565b8181036040830152620008c681876200084b565b90508181036060830152620008dc81866200084b565b90508181036080830152620008f281856200084b565b90506200090360a0830184620004eb565b97965050505050505056fe60806040523480156200001157600080fd5b506040516200186b3803806200186b8339818101604052810190620000379190620003ca565b84600160006101000a81548173ffffffffffffffffffffffffffffffffffffffff021916908373ffffffffffffffffffffffffffffffffffffffff16021790555085600281905550836003908051906020019062000097929190620000dd565b508260049080519060200190620000b0929190620000dd565b508160059080519060200190620000c9929190620000dd565b508060068190555050505050505062000528565b828054620000eb90620004f2565b90600052602060002090601f0160209004810192826200010f57600085556200015b565b82601f106200012a57805160ff19168380011785556200015b565b828001600101855582156200015b579182015b828111156200015a5782518255916020019190600101906200013d565b5b5090506200016a91906200016e565b5090565b5b80821115620001895760008160009055506001016200016f565b5090565b6000604051905090565b600080fd5b600080fd5b6000819050919050565b620001b681620001a1565b8114620001c257600080fd5b50565b600081519050620001d681620001ab565b92915050565b600073ffffffffffffffffffffffffffffffffffffffff82169050919050565b60006200020982620001dc565b9050919050565b6200021b81620001fc565b81146200022757600080fd5b50565b6000815190506200023b8162000210565b92915050565b600080fd5b600080fd5b6000601f19601f8301169050919050565b7f4e487b7100000000000000000000000000000000000000000000000000000000600052604160045260246000fd5b62000296826200024b565b810181811067ffffffffffffffff82111715620002b857620002b76200025c565b5b80604052505050565b6000620002cd6200018d565b9050620002db82826200028b565b919050565b600067ffffffffffffffff821115620002fe57620002fd6200025c565b5b62000309826200024b565b9050602081019050919050565b60005b838110156200033657808201518184015260208101905062000319565b8381111562000346576000848401525b50505050565b6000620003636200035d84620002e0565b620002c1565b90508281526020810184848401111562000382576200038162000246565b5b6200038f84828562000316565b509392505050565b600082601f830112620003af57620003ae62000241565b5b8151620003c18482602086016200034c565b91505092915050565b60008060008060008060c08789031215620003ea57620003e962000197565b5b6000620003fa89828a01620001c5565b96505060206200040d89828a016200022a565b955050604087015167ffffffffffffffff8111156200043157620004306200019c565b5b6200043f89828a0162000397565b945050606087015167ffffffffffffffff8111156200046357620004626200019c565b5b6200047189828a0162000397565b935050608087015167ffffffffffffffff8111156200049557620004946200019c565b5b620004a389828a0162000397565b92505060a0620004b689828a01620001c5565b9150509295509295509295565b7f4e487b7100000000000000000000000000000000000000000000000000000000600052602260045260246000fd5b600060028204905060018216806200050b57607f821691505b60208210811415620005225762000521620004c3565b5b50919050565b61133380620005386000396000f3fe6080604052600436106100e85760003560e01c806382fde0931161008a578063aba8315011610059578063aba83150146102ee578063b2a87fc314610319578063d7d1bbdb14610344578063ea25213f1461036d576100e8565b806382fde093146102445780638a9cfd551461026f57806397654a8c14610298578063a7f33715146102c3576100e8565b80633410452a116100c65780633410452a146101905780634051ddac146101bb578063481c6a75146101ee5780637e7cd1b314610219576100e8565b806303441006146100ed5780630a144391146101165780631fbed57914610153575b600080fd5b3480156100f957600080fd5b50610114600480360381019061010f9190610d81565b610377565b005b34801561012257600080fd5b5061013d60048036038101906101389190610e0c565b6104ef565b60405161014a9190610e54565b60405180910390f35b34801561015f57600080fd5b5061017a60048036038101906101759190610d81565b61050f565b6040516101879190610e7e565b60405180910390f35b34801561019c57600080fd5b506101a561054e565b6040516101b29190610ea8565b60405180910390f35b3480156101c757600080fd5b506101d0610558565b6040516101e599989796959493929190610f5c565b60405180910390f35b3480156101fa57600080fd5b5061020361075e565b6040516102109190610e7e565b60405180910390f35b34801561022557600080fd5b5061022e610784565b60405161023b9190610ffe565b60405180910390f35b34801561025057600080fd5b50610259610812565b6040516102669190610ea8565b60405180910390f35b34801561027b57600080fd5b5061029660048036038101906102919190611155565b610818565b005b3480156102a457600080fd5b506102ad610930565b6040516102ba9190610ffe565b60405180910390f35b3480156102cf57600080fd5b506102d86109be565b6040516102e59190610ea8565b60405180910390f35b3480156102fa57600080fd5b506103036109c4565b6040516103109190610ffe565b60405180910390f35b34801561032557600080fd5b5061032e610a52565b60405161033b9190610ea8565b60405180910390f35b34801561035057600080fd5b5061036b60048036038101906103669190610d81565b610a58565b005b610375610bb1565b005b600160009054906101000a900473ffffffffffffffffffffffffffffffffffffffff1673ffffffffffffffffffffffffffffffffffffffff163373ffffffffffffffffffffffffffffffffffffffff16146103d157600080fd5b60026009546103e09190611222565b600080838152602001908152602001600020600301541161040057600080fd5b60008082815260200190815260200160002060020160149054906101000a900460ff161561042d57600080fd5b60008082815260200190815260200160002060020160009054906101000a900473ffffffffffffffffffffffffffffffffffffffff1673ffffffffffffffffffffffffffffffffffffffff166108fc600080848152602001908152602001600020600101549081150290604051600060405180830381858888f193505050501580156104bd573d6000803e3d6000fd5b50600160008083815260200190815260200160002060020160146101000a81548160ff02191690831515021790555050565b60086020528060005260406000206000915054906101000a900460ff1681565b6007818154811061051f57600080fd5b906000526020600020016000915054906101000a900473ffffffffffffffffffffffffffffffffffffffff1681565b6000600a54905090565b60008060008060006060806060600060025447600a54600954600160009054906101000a900473ffffffffffffffffffffffffffffffffffffffff166003600460056006548380546105a990611282565b80601f01602080910402602001604051908101604052809291908181526020018280546105d590611282565b80156106225780601f106105f757610100808354040283529160200191610622565b820191906000526020600020905b81548152906001019060200180831161060557829003601f168201915b5050505050935082805461063590611282565b80601f016020809104026020016040519081016040528092919081815260200182805461066190611282565b80156106ae5780601f10610683576101008083540402835291602001916106ae565b820191906000526020600020905b81548152906001019060200180831161069157829003601f168201915b505050505092508180546106c190611282565b80601f01602080910402602001604051908101604052809291908181526020018280546106ed90611282565b801561073a5780601f1061070f5761010080835404028352916020019161073a565b820191906000526020600020905b81548152906001019060200180831161071d57829003601f168201915b50505050509150985098509850985098509850985098509850909192939495969798565b600160009054906101000a900473ffffffffffffffffffffffffffffffffffffffff1681565b6003805461079190611282565b80601f01602080910402602001604051908101604052809291908181526020018280546107bd90611282565b801561080a5780601f106107df5761010080835404028352916020019161080a565b820191906000526020600020905b8154815290600101906020018083116107ed57829003601f168201915b505050505081565b60095481565b600160009054906101000a900473ffffffffffffffffffffffffffffffffffffffff1673ffffffffffffffffffffffffffffffffffffffff163373ffffffffffffffffffffffffffffffffffffffff161461087257600080fd5b6000806000600a600081548092919061088a906112b4565b9190505581526020019081526020016000209050838160000190805190602001906108b6929190610c94565b50828160010181905550818160020160006101000a81548173ffffffffffffffffffffffffffffffffffffffff021916908373ffffffffffffffffffffffffffffffffffffffff16021790555060008160020160146101000a81548160ff0219169083151502179055506000816003018190555050505050565b6004805461093d90611282565b80601f016020809104026020016040519081016040528092919081815260200182805461096990611282565b80156109b65780601f1061098b576101008083540402835291602001916109b6565b820191906000526020600020905b81548152906001019060200180831161099957829003601f168201915b505050505081565b60025481565b600580546109d190611282565b80601f01602080910402602001604051908101604052809291908181526020018280546109fd90611282565b8015610a4a5780601f10610a1f57610100808354040283529160200191610a4a565b820191906000526020600020905b815481529060010190602001808311610a2d57829003601f168201915b505050505081565b60065481565b600860003373ffffffffffffffffffffffffffffffffffffffff1673ffffffffffffffffffffffffffffffffffffffff16815260200190815260200160002060009054906101000a900460ff16610aae57600080fd5b60008082815260200190815260200160002060040160003373ffffffffffffffffffffffffffffffffffffffff1673ffffffffffffffffffffffffffffffffffffffff16815260200190815260200160002060009054906101000a900460ff1615610b1857600080fd5b600160008083815260200190815260200160002060040160003373ffffffffffffffffffffffffffffffffffffffff1673ffffffffffffffffffffffffffffffffffffffff16815260200190815260200160002060006101000a81548160ff0219169083151502179055506000808281526020019081526020016000206003016000815480929190610ba9906112b4565b919050555050565b6002543411610bbf57600080fd5b6007339080600181540180825580915050600190039060005260206000200160009091909190916101000a81548173ffffffffffffffffffffffffffffffffffffffff021916908373ffffffffffffffffffffffffffffffffffffffff1602179055506001600860003373ffffffffffffffffffffffffffffffffffffffff1673ffffffffffffffffffffffffffffffffffffffff16815260200190815260200160002060006101000a81548160ff02191690831515021790555060096000815480929190610c8d906112b4565b9190505550565b828054610ca090611282565b90600052602060002090601f016020900481019282610cc25760008555610d09565b82601f10610cdb57805160ff1916838001178555610d09565b82800160010185558215610d09579182015b82811115610d08578251825591602001919060010190610ced565b5b509050610d169190610d1a565b5090565b5b80821115610d33576000816000905550600101610d1b565b5090565b6000604051905090565b600080fd5b600080fd5b6000819050919050565b610d5e81610d4b565b8114610d6957600080fd5b50565b600081359050610d7b81610d55565b92915050565b600060208284031215610d9757610d96610d41565b5b6000610da584828501610d6c565b91505092915050565b600073ffffffffffffffffffffffffffffffffffffffff82169050919050565b6000610dd982610dae565b9050919050565b610de981610dce565b8114610df457600080fd5b50565b600081359050610e0681610de0565b92915050565b600060208284031215610e2257610e21610d41565b5b6000610e3084828501610df7565b91505092915050565b60008115159050919050565b610e4e81610e39565b82525050565b6000602082019050610e696000830184610e45565b92915050565b610e7881610dce565b82525050565b6000602082019050610e936000830184610e6f565b92915050565b610ea281610d4b565b82525050565b6000602082019050610ebd6000830184610e99565b92915050565b600081519050919050565b600082825260208201905092915050565b60005b83811015610efd578082015181840152602081019050610ee2565b83811115610f0c576000848401525b50505050565b6000601f19601f8301169050919050565b6000610f2e82610ec3565b610f388185610ece565b9350610f48818560208601610edf565b610f5181610f12565b840191505092915050565b600061012082019050610f72600083018c610e99565b610f7f602083018b610e99565b610f8c604083018a610e99565b610f996060830189610e99565b610fa66080830188610e6f565b81810360a0830152610fb88187610f23565b905081810360c0830152610fcc8186610f23565b905081810360e0830152610fe08185610f23565b9050610ff0610100830184610e99565b9a9950505050505050505050565b600060208201905081810360008301526110188184610f23565b905092915050565b600080fd5b600080fd5b7f4e487b7100000000000000000000000000000000000000000000000000000000600052604160045260246000fd5b61106282610f12565b810181811067ffffffffffffffff821117156110815761108061102a565b5b80604052505050565b6000611094610d37565b90506110a08282611059565b919050565b600067ffffffffffffffff8211156110c0576110bf61102a565b5b6110c982610f12565b9050602081019050919050565b82818337600083830152505050565b60006110f86110f3846110a5565b61108a565b90508281526020810184848401111561111457611113611025565b5b61111f8482856110d6565b509392505050565b600082601f83011261113c5761113b611020565b5b813561114c8482602086016110e5565b91505092915050565b60008060006060848603121561116e5761116d610d41565b5b600084013567ffffffffffffffff81111561118c5761118b610d46565b5b61119886828701611127565b93505060206111a986828701610d6c565b92505060406111ba86828701610df7565b9150509250925092565b7f4e487b7100000000000000000000000000000000000000000000000000000000600052601260045260246000fd5b7f4e487b7100000000000000000000000000000000000000000000000000000000600052601160045260246000fd5b600061122d82610d4b565b915061123883610d4b565b925082611248576112476111c4565b5b828204905092915050565b7f4e487b7100000000000000000000000000000000000000000000000000000000600052602260045260246000fd5b6000600282049050600182168061129a57607f821691505b602082108114156112ae576112ad611253565b5b50919050565b60006112bf82610d4b565b91507fffffffffffffffffffffffffffffffffffffffffffffffffffffffffffffffff8214156112f2576112f16111f3565b5b60018201905091905056fea2646970667358221220eb2724881522b2e45638c084868668e24bef6d8204905c4c0c97afa11d13e6a664736f6c63430008090033a2646970667358221220b4a0befdb1e0bc1b8f0143ac71f9f3fabcc131cb71d06db4f08ba40ab3ac173864736f6c63430008090033",
  "immutableReferences": {},
  "source": "// SPDX-License-Identifier: MIT\npragma solidity ^0.8.9;\n\ncontract CampaignFactory {\n    address[] public deployedCampaigns;\n\n    function createCampaign(\n        uint256 minimum,\n        string memory name,\n        string memory description,\n        string memory image,\n        uint256 target\n    ) public {\n        Campaign newCampaign = new Campaign(\n            minimum,\n            msg.sender,\n            name,\n            description,\n            image,\n            target\n        );\n        deployedCampaigns.push(address(newCampaign));\n    }\n\n    function getDeployedCampaigns() public view returns (address[] memory) {\n        return deployedCampaigns;\n    }\n\n    function getDeployedCampaignsLength() public view returns (uint256) {\n        return deployedCampaigns.length;\n    }\n\n    function getNewestCampaignAddress() public view returns (address) {\n        return deployedCampaigns[deployedCampaigns.length - 1];\n    }\n}\n\ncontract Campaign {\n    struct Request {\n        string description;\n        uint256 value;\n        address recipient;\n        bool complete;\n        uint256 approvalCount;\n        mapping(address => bool) approvals;\n    }\n    mapping(uint256 => Request) requests;\n    // Request[] public requests;\n    address public manager;\n    uint256 public minimunContribution;\n    string public CampaignName;\n    string public CampaignDescription;\n    string public imageUrl;\n    uint256 public targetToAchieve;\n    address[] public contributers;\n    mapping(address => bool) public approvers;\n    uint256 public approversCount;\n\n    uint256 numRequests;\n    // mapping(uint256 => Request) requestsMap;\n\n    modifier restricted() {\n        require(msg.sender == manager);\n        _;\n    }\n\n    constructor(\n        uint256 minimun,\n        address creator,\n        string memory name,\n        string memory description,\n        string memory image,\n        uint256 target\n    ) {\n        manager = creator;\n        minimunContribution = minimun;\n        CampaignName = name;\n        CampaignDescription = description;\n        imageUrl = image;\n        targetToAchieve = target;\n    }\n\n    function contibute() public payable {\n        require(msg.value > minimunContribution);\n\n        contributers.push(msg.sender);\n        approvers[msg.sender] = true;\n        approversCount++;\n    }\n\n    function createRequest(\n        string memory description,\n        uint256 value,\n        address recipient\n    ) public restricted {\n        Request storage r = requests[numRequests++];\n\n        // Request memory newRequest = Request({\n        //     description: description,\n        //     value: value,\n        //     recipient: recipient,\n        //     complete: false,\n        //     approvalCount: 0\n        // });\n        r.description = description;\n        r.value = value;\n        r.recipient = recipient;\n        r.complete = false;\n        r.approvalCount = 0;\n    }\n\n    function approveRequest(uint256 index) public {\n        require(approvers[msg.sender]);\n        require(!requests[index].approvals[msg.sender]);\n\n        requests[index].approvals[msg.sender] = true;\n        requests[index].approvalCount++;\n    }\n\n    function finalizeRequest(uint256 index) public restricted {\n        require(requests[index].approvalCount > (approversCount / 2));\n        require(!requests[index].complete);\n\n        payable(requests[index].recipient).transfer(requests[index].value);\n        requests[index].complete = true;\n    }\n\n    function getSummary()\n        public\n        view\n        returns (\n            uint256,\n            uint256,\n            uint256,\n            uint256,\n            address,\n            string memory,\n            string memory,\n            string memory,\n            uint256\n        )\n    {\n        return (\n            minimunContribution,\n            address(this).balance,\n            numRequests,\n            approversCount,\n            manager,\n            CampaignName,\n            CampaignDescription,\n            imageUrl,\n            targetToAchieve\n        );\n    }\n\n    function getRequestsCount() public view returns (uint256) {\n        return numRequests;\n    }\n}\n",
  "sourcePath": "D:\\Blockchain\\BlockchainCharity\\contracts\\Campaign.sol",
  "compiler": {
    "name": "solc",
    "version": "0.8.9+commit.e5eed63a.Emscripten.clang"
  },
  "schemaVersion": "3.4.7",
  "updatedAt": "2022-05-02T14:07:06.553Z",
  "networkType": "ethereum",
  "devdoc": {
    "kind": "dev",
    "methods": {},
    "version": 1
  },
  "userdoc": {
    "kind": "user",
    "methods": {},
    "version": 1
  }
}